{
  "contractName": "ComplexStorage",
  "abi": [
    {
      "constant": true,
      "inputs": [],
      "name": "string2",
      "outputs": [
        {
          "name": "",
          "type": "bytes32"
        }
      ],
      "payable": false,
      "stateMutability": "view",
      "type": "function"
    },
    {
      "constant": true,
      "inputs": [],
      "name": "storeduint1",
      "outputs": [
        {
          "name": "",
          "type": "uint256"
        }
      ],
      "payable": false,
      "stateMutability": "view",
      "type": "function"
    },
    {
      "constant": true,
      "inputs": [],
      "name": "singleDD",
      "outputs": [
        {
          "name": "deviceBrand",
          "type": "string"
        },
        {
          "name": "deviceYear",
          "type": "string"
        },
        {
          "name": "batteryWearLevel",
          "type": "string"
        }
      ],
      "payable": false,
      "stateMutability": "view",
      "type": "function"
    },
    {
      "constant": true,
      "inputs": [
        {
          "name": "",
          "type": "uint256"
        }
      ],
      "name": "uintarray",
      "outputs": [
        {
          "name": "",
          "type": "uint256"
        }
      ],
      "payable": false,
      "stateMutability": "view",
      "type": "function"
    },
    {
      "constant": true,
      "inputs": [
        {
          "name": "",
          "type": "uint256"
        }
      ],
      "name": "deviceDataArray",
      "outputs": [
        {
          "name": "deviceBrand",
          "type": "string"
        },
        {
          "name": "deviceYear",
          "type": "string"
        },
        {
          "name": "batteryWearLevel",
          "type": "string"
        }
      ],
      "payable": false,
      "stateMutability": "view",
      "type": "function"
    },
    {
      "constant": true,
      "inputs": [],
      "name": "string3",
      "outputs": [
        {
          "name": "",
          "type": "string"
        }
      ],
      "payable": false,
      "stateMutability": "view",
      "type": "function"
    },
    {
      "constant": true,
      "inputs": [],
      "name": "constuint",
      "outputs": [
        {
          "name": "",
          "type": "uint256"
        }
      ],
      "payable": false,
      "stateMutability": "view",
      "type": "function"
    },
    {
      "constant": true,
      "inputs": [],
      "name": "string1",
      "outputs": [
        {
          "name": "",
          "type": "bytes16"
        }
      ],
      "payable": false,
      "stateMutability": "view",
      "type": "function"
    },
    {
      "constant": true,
      "inputs": [],
      "name": "investmentsDeadlineTimeStamp",
      "outputs": [
        {
          "name": "",
          "type": "uint32"
        }
      ],
      "payable": false,
      "stateMutability": "view",
      "type": "function"
    },
    {
      "constant": true,
      "inputs": [],
      "name": "investmentsLimit",
      "outputs": [
        {
          "name": "",
          "type": "uint128"
        }
      ],
      "payable": false,
      "stateMutability": "view",
      "type": "function"
    },
    {
      "inputs": [],
      "payable": false,
      "stateMutability": "nonpayable",
      "type": "constructor"
    }
  ],
  "bytecode": "0x600f6000556001805461429f6001608060020a031991821617608060020a63ffffffff0219167001000000000000000000000000000000004263ffffffff160217909155600280549091166f746573743100000000000000000000001790557f746573743132333600000000000000000000000000000000000000000000000060035560c0604052601560808190527f6c65747320737472696e6720736f6d657468696e67000000000000000000000060a0908152620000c3916004919062000650565b50348015620000d157600080fd5b5060587fafef6be2b419f4d69d56fe34788202bf06650015554457a2470181981bcce7ef5560637fb01ced36af2255129ceb004046ab791f2c883dd74d458026d7b81c7aaff3566b556040805160a081018252600b606082019081527f6465766963654272616e640000000000000000000000000000000000000000006080830152815281518083018352600a81527f64657669636559656172000000000000000000000000000000000000000000006020828101919091528281019190915282518084018452600981527f776561724c6576656c0000000000000000000000000000000000000000000000818301529282019290925273bccc714d56bc0da0fd33d96d2a87b680dd6d0df660008190526006835281518051919373aee905fdd3ed851e48d22059575b9f4245a82b0493927f720c187f2880b2567f9fccc279625ea13024b8b82a6f73e26d9ca6d82ede1cc5926200023592849291019062000650565b50602082810151805162000250926001850192019062000650565b50604082015180516200026e91600284019160209091019062000650565b50506040805160a081018252600c606082019081527f6465766963654272616e643200000000000000000000000000000000000000006080830152815281518083018352600b81527f64657669636559656172320000000000000000000000000000000000000000006020828101919091528083019190915282518084018452600a81527f776561724c6576656c32000000000000000000000000000000000000000000008183015282840152600160a060020a038516600090815260068252929092208151805192945090926200034c9284929091019062000650565b50602082810151805162000367926001850192019062000650565b50604082015180516200038591600284019160209091019062000650565b50506040805160a081018252600c606082019081527f6465766963654272616e643300000000000000000000000000000000000000006080830152815281518083018352600b81527f64657669636559656172330000000000000000000000000000000000000000006020828101919091528083019190915282518084018452600a81527f776561724c6576656c3300000000000000000000000000000000000000000000818301529282019290925280518051919350600992620004509284929091019062000650565b5060208281015180516200046b926001850192019062000650565b50604082015180516200048991600284019160209091019062000650565b50506007805460018181018355611f407fa66cc928b5edb82af9bd49922954155ab7b0942694bea4ce44661d9a8736c6889283015582548082019093556123289290910191909155600160a060020a0384166000908152600660205260408120600880548085018083559190935281549094509092600390920260008051602062000ea7833981519152019162000537918391859160026101009282161592909202600019011604620006d5565b506001820181600101908054600181600116156101000203166002900462000561929190620006d5565b506002828101805462000588928481019291600019610100600183161502011604620006d5565b505050600160a060020a03821660009081526006602052604081206008805460018181018084559290945282549194509192600390920260008051602062000ea78339815191520191620005f3918391859160026101009282161592909202600019011604620006d5565b50600182018160010190805460018160011615610100020316600290046200061d929190620006d5565b506002828101805462000644928481019291600019610100600183161502011604620006d5565b5050505050506200076f565b828054600181600116156101000203166002900490600052602060002090601f016020900481019282601f106200069357805160ff1916838001178555620006c3565b82800160010185558215620006c3579182015b82811115620006c3578251825591602001919060010190620006a6565b50620006d19291506200074f565b5090565b828054600181600116156101000203166002900490600052602060002090601f016020900481019282601f10620007105780548555620006c3565b82800160010185558215620006c357600052602060002091601f016020900482015b82811115620006c357825482559160010191906001019062000732565b6200076c91905b80821115620006d1576000815560010162000756565b90565b610728806200077f6000396000f3006080604052600436106100a35763ffffffff7c01000000000000000000000000000000000000000000000000000000006000350416630ca0aa7981146100a857806311f9c74d146100cf57806328a20b5e146100e45780636c0c1bcf1461023d57806384eeda5614610255578063927558601461026d57806397ba784f146102f7578063a7b2cfca1461030c578063df4fddf514610347578063eec65f2914610375575b600080fd5b3480156100b457600080fd5b506100bd6103af565b60408051918252519081900360200190f35b3480156100db57600080fd5b506100bd6103b5565b3480156100f057600080fd5b506100f96103bb565b60405180806020018060200180602001848103845287818151815260200191508051906020019080838360005b8381101561013e578181015183820152602001610126565b50505050905090810190601f16801561016b5780820380516001836020036101000a031916815260200191505b50848103835286518152865160209182019188019080838360005b8381101561019e578181015183820152602001610186565b50505050905090810190601f1680156101cb5780820380516001836020036101000a031916815260200191505b50848103825285518152855160209182019187019080838360005b838110156101fe5781810151838201526020016101e6565b50505050905090810190601f16801561022b5780820380516001836020036101000a031916815260200191505b50965050505050505060405180910390f35b34801561024957600080fd5b506100bd60043561057d565b34801561026157600080fd5b506100f960043561059c565b34801561027957600080fd5b50610282610618565b6040805160208082528351818301528351919283929083019185019080838360005b838110156102bc5781810151838201526020016102a4565b50505050905090810190601f1680156102e95780820380516001836020036101000a031916815260200191505b509250505060405180910390f35b34801561030357600080fd5b506100bd6106a6565b34801561031857600080fd5b506103216106ab565b604080516fffffffffffffffffffffffffffffffff199092168252519081900360200190f35b34801561035357600080fd5b5061035c6106c4565b6040805163ffffffff9092168252519081900360200190f35b34801561038157600080fd5b5061038a6106e4565b604080516fffffffffffffffffffffffffffffffff9092168252519081900360200190f35b60035481565b60005481565b60098054604080516020601f600260001961010060018816150201909516949094049384018190048102820181019092528281529183918301828280156104435780601f1061041857610100808354040283529160200191610443565b820191906000526020600020905b81548152906001019060200180831161042657829003601f168201915b505050505090806001018054600181600116156101000203166002900480601f0160208091040260200160405190810160405280929190818152602001828054600181600116156101000203166002900480156104e15780601f106104b6576101008083540402835291602001916104e1565b820191906000526020600020905b8154815290600101906020018083116104c457829003601f168201915b50505060028085018054604080516020601f60001961010060018716150201909416959095049283018590048502810185019091528181529596959450909250908301828280156105735780601f1061054857610100808354040283529160200191610573565b820191906000526020600020905b81548152906001019060200180831161055657829003601f168201915b5050505050905083565b600780548290811061058b57fe5b600091825260209091200154905081565b60088054829081106105aa57fe5b60009182526020918290206003919091020180546040805160026001841615610100026000190190931692909204601f8101859004850283018501909152808252919350918391908301828280156104435780601f1061041857610100808354040283529160200191610443565b6004805460408051602060026001851615610100026000190190941693909304601f8101849004840282018401909252818152929183018282801561069e5780601f106106735761010080835404028352916020019161069e565b820191906000526020600020905b81548152906001019060200180831161068157829003601f168201915b505050505081565b601081565b6002547001000000000000000000000000000000000281565b600154700100000000000000000000000000000000900463ffffffff1681565b6001546fffffffffffffffffffffffffffffffff16815600a165627a7a7230582079bea1f073b8f30106e90714ac9df595900caf56424cfac9b0c6e18b6514f8ce0029f3f7a9fe364faab93b216da50a3214154f22a0a2b415b23a84c8169e8b636ee3",
  "source": "pragma solidity ^0.4.0;\n\ncontract ComplexStorage {\n\n\tuint public storeduint1 = 15;\n\tuint public constant constuint = 16;\n\tuint128 public investmentsLimit = 17055;\n\tuint32 public investmentsDeadlineTimeStamp = uint32(now);\n\n\tbytes16 public string1 = \"test1\";\n\tbytes32 public string2 = \"test1236\";\n\tstring public string3 = \"lets string something\";\n\n\tmapping (address => uint) uints1;\n\tmapping (address => DeviceData) structs1;\n\n\tuint[] public uintarray;\n\tDeviceData[] public deviceDataArray;\n    DeviceData public singleDD;\n\n\tstruct DeviceData {\n\t\tstring deviceBrand;\n\t\tstring deviceYear;\n\t\tstring batteryWearLevel;\n\t}\n\n\tconstructor() public {\n\t\taddress address1 = 0xbCcc714d56bc0da0fd33d96d2a87b680dD6D0DF6;\n\t\taddress address2 = 0xaee905FdD3ED851e48d22059575b9F4245A82B04;\n\n\t\tuints1[address1] = 88;\n\t\tuints1[address2] = 99;\n\n\t\tstructs1[address1] = DeviceData(\"deviceBrand\", \"deviceYear\", \"wearLevel\");\n\t\tstructs1[address2] = DeviceData(\"deviceBrand2\", \"deviceYear2\", \"wearLevel2\");\n        singleDD = DeviceData(\"deviceBrand3\", \"deviceYear3\", \"wearLevel3\");\n\n\t\tuintarray.push(8000);\n\t\tuintarray.push(9000);\n\n\t\tdeviceDataArray.push(structs1[address1]);\n\t\tdeviceDataArray.push(structs1[address2]);\n\t}\n}\n",
  "sourcePath": "/Users/kristoferjenk/finalProject/contracts/ComplexStorage.sol",
  "compiler": {
    "name": "solc",
    "version": "0.4.24+commit.e67f0147.Emscripten.clang"
  },
  "schemaVersion": "2.0.1",
  "updatedAt": "2018-08-23T20:48:40.930Z"
}