{
  "contractName": "PredictiveBetToken",
  "abi": [
    {
      "constant": true,
      "inputs": [],
      "name": "name",
      "outputs": [
        {
          "name": "",
          "type": "string"
        }
      ],
      "payable": false,
      "stateMutability": "view",
      "type": "function"
    },
    {
      "constant": false,
      "inputs": [
        {
          "name": "_spender",
          "type": "address"
        },
        {
          "name": "_value",
          "type": "uint256"
        }
      ],
      "name": "approve",
      "outputs": [
        {
          "name": "",
          "type": "bool"
        }
      ],
      "payable": false,
      "stateMutability": "nonpayable",
      "type": "function"
    },
    {
      "constant": true,
      "inputs": [],
      "name": "totalSupply",
      "outputs": [
        {
          "name": "",
          "type": "uint256"
        }
      ],
      "payable": false,
      "stateMutability": "view",
      "type": "function"
    },
    {
      "constant": true,
      "inputs": [],
      "name": "initialPrice",
      "outputs": [
        {
          "name": "",
          "type": "uint256"
        }
      ],
      "payable": false,
      "stateMutability": "view",
      "type": "function"
    },
    {
      "constant": false,
      "inputs": [
        {
          "name": "_from",
          "type": "address"
        },
        {
          "name": "_to",
          "type": "address"
        },
        {
          "name": "_value",
          "type": "uint256"
        }
      ],
      "name": "transferFrom",
      "outputs": [
        {
          "name": "",
          "type": "bool"
        }
      ],
      "payable": false,
      "stateMutability": "nonpayable",
      "type": "function"
    },
    {
      "constant": true,
      "inputs": [],
      "name": "INITIAL_SUPPLY",
      "outputs": [
        {
          "name": "",
          "type": "uint256"
        }
      ],
      "payable": false,
      "stateMutability": "view",
      "type": "function"
    },
    {
      "constant": true,
      "inputs": [],
      "name": "decimals",
      "outputs": [
        {
          "name": "",
          "type": "uint256"
        }
      ],
      "payable": false,
      "stateMutability": "view",
      "type": "function"
    },
    {
      "constant": false,
      "inputs": [
        {
          "name": "_spender",
          "type": "address"
        },
        {
          "name": "_subtractedValue",
          "type": "uint256"
        }
      ],
      "name": "decreaseApproval",
      "outputs": [
        {
          "name": "",
          "type": "bool"
        }
      ],
      "payable": false,
      "stateMutability": "nonpayable",
      "type": "function"
    },
    {
      "constant": true,
      "inputs": [
        {
          "name": "_owner",
          "type": "address"
        }
      ],
      "name": "balanceOf",
      "outputs": [
        {
          "name": "",
          "type": "uint256"
        }
      ],
      "payable": false,
      "stateMutability": "view",
      "type": "function"
    },
    {
      "constant": true,
      "inputs": [],
      "name": "addr",
      "outputs": [
        {
          "name": "",
          "type": "address"
        }
      ],
      "payable": false,
      "stateMutability": "view",
      "type": "function"
    },
    {
      "constant": true,
      "inputs": [],
      "name": "symbol",
      "outputs": [
        {
          "name": "",
          "type": "string"
        }
      ],
      "payable": false,
      "stateMutability": "view",
      "type": "function"
    },
    {
      "constant": false,
      "inputs": [
        {
          "name": "_to",
          "type": "address"
        },
        {
          "name": "_value",
          "type": "uint256"
        }
      ],
      "name": "transfer",
      "outputs": [
        {
          "name": "",
          "type": "bool"
        }
      ],
      "payable": false,
      "stateMutability": "nonpayable",
      "type": "function"
    },
    {
      "constant": false,
      "inputs": [
        {
          "name": "_spender",
          "type": "address"
        },
        {
          "name": "_addedValue",
          "type": "uint256"
        }
      ],
      "name": "increaseApproval",
      "outputs": [
        {
          "name": "",
          "type": "bool"
        }
      ],
      "payable": false,
      "stateMutability": "nonpayable",
      "type": "function"
    },
    {
      "constant": true,
      "inputs": [
        {
          "name": "_owner",
          "type": "address"
        },
        {
          "name": "_spender",
          "type": "address"
        }
      ],
      "name": "allowance",
      "outputs": [
        {
          "name": "",
          "type": "uint256"
        }
      ],
      "payable": false,
      "stateMutability": "view",
      "type": "function"
    },
    {
      "inputs": [],
      "payable": true,
      "stateMutability": "payable",
      "type": "constructor"
    },
    {
      "anonymous": false,
      "inputs": [
        {
          "indexed": true,
          "name": "owner",
          "type": "address"
        },
        {
          "indexed": true,
          "name": "spender",
          "type": "address"
        },
        {
          "indexed": false,
          "name": "value",
          "type": "uint256"
        }
      ],
      "name": "Approval",
      "type": "event"
    },
    {
      "anonymous": false,
      "inputs": [
        {
          "indexed": true,
          "name": "from",
          "type": "address"
        },
        {
          "indexed": true,
          "name": "to",
          "type": "address"
        },
        {
          "indexed": false,
          "name": "value",
          "type": "uint256"
        }
      ],
      "name": "Transfer",
      "type": "event"
    },
    {
      "constant": false,
      "inputs": [],
      "name": "exchange",
      "outputs": [],
      "payable": true,
      "stateMutability": "payable",
      "type": "function"
    }
  ],
  "bytecode": "0x60c0604052601260808190527f50726564696374697665426574546f6b656e000000000000000000000000000060a090815261003e91600391906100dd565b506040805180820190915260038082527f50425400000000000000000000000000000000000000000000000000000000006020909201918252610083916004916100dd565b50601260055566038d7ea4c6800060065560078054600160a060020a03191630179081905569021e19e0c9bab240000060088190556001819055600160a060020a0391909116600090815260208190526040902055610178565b828054600181600116156101000203166002900490600052602060002090601f016020900481019282601f1061011e57805160ff191683800117855561014b565b8280016001018555821561014b579182015b8281111561014b578251825591602001919060010190610130565b5061015792915061015b565b5090565b61017591905b808211156101575760008155600101610161565b90565b6109e7806101876000396000f3006080604052600436106100da5763ffffffff7c010000000000000000000000000000000000000000000000000000000060003504166306fdde0381146100df578063095ea7b31461016957806318160ddd146101a15780631d0806ae146101c857806323b872dd146101dd5780632ff2e9dc14610207578063313ce5671461021c578063661884631461023157806370a0823114610255578063767800de1461027657806395d89b41146102a7578063a9059cbb146102bc578063d2f7265a146102e0578063d73dd623146102ea578063dd62ed3e1461030e575b600080fd5b3480156100eb57600080fd5b506100f4610335565b6040805160208082528351818301528351919283929083019185019080838360005b8381101561012e578181015183820152602001610116565b50505050905090810190601f16801561015b5780820380516001836020036101000a031916815260200191505b509250505060405180910390f35b34801561017557600080fd5b5061018d600160a060020a03600435166024356103c3565b604080519115158252519081900360200190f35b3480156101ad57600080fd5b506101b6610429565b60408051918252519081900360200190f35b3480156101d457600080fd5b506101b661042f565b3480156101e957600080fd5b5061018d600160a060020a0360043581169060243516604435610435565b34801561021357600080fd5b506101b66105ac565b34801561022857600080fd5b506101b66105b2565b34801561023d57600080fd5b5061018d600160a060020a03600435166024356105b8565b34801561026157600080fd5b506101b6600160a060020a03600435166106a8565b34801561028257600080fd5b5061028b6106c3565b60408051600160a060020a039092168252519081900360200190f35b3480156102b357600080fd5b506100f46106d2565b3480156102c857600080fd5b5061018d600160a060020a036004351660243561072d565b6102e861080e565b005b3480156102f657600080fd5b5061018d600160a060020a03600435166024356108d2565b34801561031a57600080fd5b506101b6600160a060020a036004358116906024351661096b565b6003805460408051602060026001851615610100026000190190941693909304601f810184900484028201840190925281815292918301828280156103bb5780601f10610390576101008083540402835291602001916103bb565b820191906000526020600020905b81548152906001019060200180831161039e57829003601f168201915b505050505081565b336000818152600260209081526040808320600160a060020a038716808552908352818420869055815186815291519394909390927f8c5be1e5ebec7d5bd14f71427d1e84f3dd0314c0f7b2291e5b200ac8c7c3b925928290030190a350600192915050565b60015490565b60065481565b6000600160a060020a038316151561044c57600080fd5b600160a060020a03841660009081526020819052604090205482111561047157600080fd5b600160a060020a03841660009081526002602090815260408083203384529091529020548211156104a157600080fd5b600160a060020a0384166000908152602081905260409020546104ca908363ffffffff61099616565b600160a060020a0380861660009081526020819052604080822093909355908516815220546104ff908363ffffffff6109a816565b600160a060020a03808516600090815260208181526040808320949094559187168152600282528281203382529091522054610541908363ffffffff61099616565b600160a060020a03808616600081815260026020908152604080832033845282529182902094909455805186815290519287169391927fddf252ad1be2c89b69c2b068fc378daa952ba7f163c4a11628f55a4df523b3ef929181900390910190a35060019392505050565b60085481565b60055481565b336000908152600260209081526040808320600160a060020a03861684529091528120548083111561060d57336000908152600260209081526040808320600160a060020a0388168452909152812055610642565b61061d818463ffffffff61099616565b336000908152600260209081526040808320600160a060020a03891684529091529020555b336000818152600260209081526040808320600160a060020a0389168085529083529281902054815190815290519293927f8c5be1e5ebec7d5bd14f71427d1e84f3dd0314c0f7b2291e5b200ac8c7c3b925929181900390910190a35060019392505050565b600160a060020a031660009081526020819052604090205490565b600754600160a060020a031681565b6004805460408051602060026001851615610100026000190190941693909304601f810184900484028201840190925281815292918301828280156103bb5780601f10610390576101008083540402835291602001916103bb565b6000600160a060020a038316151561074457600080fd5b3360009081526020819052604090205482111561076057600080fd5b33600090815260208190526040902054610780908363ffffffff61099616565b3360009081526020819052604080822092909255600160a060020a038516815220546107b2908363ffffffff6109a816565b600160a060020a038416600081815260208181526040918290209390935580518581529051919233927fddf252ad1be2c89b69c2b068fc378daa952ba7f163c4a11628f55a4df523b3ef9281900390910190a350600192915050565b6000341161081b57600080fd5b30600160a060020a031663a9059cbb336006543481151561083857fe5b046040518363ffffffff167c01000000000000000000000000000000000000000000000000000000000281526004018083600160a060020a0316600160a060020a0316815260200182815260200192505050602060405180830381600087803b1580156108a457600080fd5b505af11580156108b8573d6000803e3d6000fd5b505050506040513d60208110156108ce57600080fd5b5050565b336000908152600260209081526040808320600160a060020a0386168452909152812054610906908363ffffffff6109a816565b336000818152600260209081526040808320600160a060020a0389168085529083529281902085905580519485525191937f8c5be1e5ebec7d5bd14f71427d1e84f3dd0314c0f7b2291e5b200ac8c7c3b925929081900390910190a350600192915050565b600160a060020a03918216600090815260026020908152604080832093909416825291909152205490565b6000828211156109a257fe5b50900390565b818101828110156109b557fe5b929150505600a165627a7a72305820452a2e5d962619bcb6dd2fea20b997e161570a98eb2f6a0633ba6d6fa04c2ede0029",
  "source": "pragma solidity ^0.4.24;\n\nimport \"openzeppelin-solidity/contracts/token/ERC20/StandardToken.sol\";\n\n\ncontract PredictiveBetToken is StandardToken {\n\n  string public name = \"PredictiveBetToken\";\n  string public symbol = \"PBT\";\n  uint public decimals = 18;\n  uint public initialPrice = 1000000000000000;\n\n  address public addr = address(this);\n  \n  uint public INITIAL_SUPPLY = 10000 * (10 ** uint256(decimals));\n\n  constructor() public payable {\n    totalSupply_ = INITIAL_SUPPLY;\n    balances[addr] = INITIAL_SUPPLY;\n  }\n\n  function exchange() payable public {\n\trequire(msg.value > 0);\n      \n    //balance[msg.sender] += msg.value;\n    //balance[addr] -= msg.value\n        \n    this.transfer(msg.sender, msg.value / initialPrice);\n\t}\n}\n",
  "sourcePath": "/Users/kristoferjenk/finalProject/contracts/PredictiveBetToken.sol",
  "compiler": {
    "name": "solc",
    "version": "0.4.24+commit.e67f0147.Emscripten.clang"
  },
  "schemaVersion": "2.0.1",
  "updatedAt": "2018-08-23T22:19:14.631Z"
}